:100000000C942A000C9447000C9447000C94470071
:100010000C9447000C9447000C9447000C94470044
:100020000C9447000C9447000C9447000C94470034
:100030000C9447000C9447000C9447000C94470024
:100040000C9447000C9447000C9447000C94470014
:100050000C94470011241FBECFE5D8E0DEBFCDBF12
:1000600010E0A0E6B0E0E2E2FFE202C005900D92EF
:10007000AC3FB107D9F711E0ACEFB0E001C01D9281
:10008000A030B107E1F70E9464150C948F170C940F
:100090000000EF92FF920F931F937B018C0120E0F1
:1000A00030E040E05FE40E94F50388238CF0C80153
:1000B000B70120E030E040E05FE40E94C1010E940F
:1000C00055049B01AC01205030404040504806C0D0
:1000D000C801B7010E9455049B01AC01B901CA01D6
:1000E0001F910F91FF90EF900895A0E0B0E0EBE733
:1000F000F0E00C945817DC012B01FA019C9192302E
:1001000008F439C1EB018881823008F433C194309E
:1001100069F4843009F02FC111969C91119789815F
:10012000981709F428C1A6EDB0E025C1843009F480
:1001300021C18230A9F4923009F01DC19A01AD01AC
:1001400088E0EA010990AE01E90109929E0181501F
:10015000C1F7E201898111969C918923818308C1AD
:10016000923009F407C112962D903C901397EB0141
:100170008A819B811496AD90BD90CD90DC901797AD
:10018000EC80FD800E811F819101281B390BB90184
:1001900037FF04C066277727621B730B6032710537
:1001A0000CF061C0121613066CF537014801062EDB
:1001B00004C096948794779467940A94D2F721E0C8
:1001C00030E040E050E004C0220F331F441F551FB1
:1001D0006A95D2F721503040404050402E213F21B7
:1001E00040235123211531054105510521F021E01E
:1001F00030E040E050E079018A01E628F72808293C
:1002000019293CC0232BD1F1260E371E350146019A
:10021000062E04C096948794779467940A94D2F734
:1002200021E030E040E050E004C0220F331F441FC3
:10023000551F6A95D2F721503040404050402A2146
:100240003B214C215D21211531054105510521F04E
:1002500021E030E040E050E059016A01A628B728CB
:10026000C828D9280BC0821593052CF01C01AA249C
:10027000BB24650103C0EE24FF24870111969C91E5
:10028000D20111968C91981709F445C0992339F041
:10029000A80197012A193B094C095D0906C0A6016E
:1002A00095012E193F09400B510B57FD08C01182D3
:1002B0003382228224833583468357831DC081E0A5
:1002C00081833382228288279927DC01821B930B4A
:1002D000A40BB50B84839583A683B7830DC0220F2F
:1002E000331F441F551F24833583468357838281E0
:1002F000938101979383828324813581468157813D
:10030000DA01C9010197A109B1098F5F9F4FAF4F72
:10031000BF4328F30BC0918333822282EA0CFB1C7B
:100320000C1D1D1DE482F5820683178383E0808304
:10033000248135814681578157FF1AC0C901AA27F8
:1003400097FDA095BA2F81709070A070B0705695EF
:10035000479537952795822B932BA42BB52B848318
:100360009583A683B7838281938101969383828349
:10037000DF0101C0D201CD01CDB7DEB7E2E10C94BF
:100380007417A0E2B0E0E7ECF1E00C946417698325
:100390007A838B839C832D833E834F835887E9E048
:1003A000EE2EF12CEC0EFD1ECE010196B7010E943F
:1003B0007E058E010F5E1F4FCE010596B8010E948B
:1003C0007E058A8991E089278A8BC701B801AE0131
:1003D000475E5F4F0E9475000E94A904A096E6E068
:1003E0000C948017A0E2B0E0E8EFF1E00C94641701
:1003F00069837A838B839C832D833E834F835887C5
:10040000F9E0EF2EF12CEC0EFD1ECE010196B701A6
:100410000E947E058E010F5E1F4FCE010596B8012A
:100420000E947E05C701B801AE01475E5F4F0E9482
:1004300075000E94A904A096E6E00C948017A0E243
:10044000B0E0E5E2F2E00C94581769837A838B837D
:100450009C832D833E834F835887CE010196BE0136
:10046000675F7F4F0E947E05CE010596BE016F5EDD
:100470007F4F0E947E059985923088F0898982306D
:10048000C8F0943019F4823051F404C0843029F457
:10049000923081F486ED90E0C6C0923049F420E0BD
:1004A0009A858A89981321E02A87CE010996BBC0D4
:1004B000823049F420E09A858A89981321E02A8BBA
:1004C000CE014196B0C02D843E844F8458886D88FB
:1004D0007E888F88988CEE24FF248701AA24BB2471
:1004E000650140E050E060E070E0E0E0F0E0C10174
:1004F00081709070892BE9F0E60CF71C081D191D1E
:100500009A01AB012A0D3B1D4C1D5D1D80E090E062
:10051000A0E0B0E0E614F7040805190520F481E036
:1005200090E0A0E0B0E0BA01A901480F591F6A1F8E
:100530007B1FAA0CBB1CCC1CDD1C97FE08C081E0F5
:1005400090E0A0E0B0E0A82AB92ACA2ADB2A3196B6
:10055000E032F10549F0660C771C881C991C569412
:10056000479437942794C3CFFA85EA892B893C892D
:100570008B859C85280F391F2E5F3F4F17C0CA01FE
:1005800081709070892B61F016950795F794E79428
:1005900080E090E0A0E0B0E8E82AF92A0A2B1B2BC3
:1005A00076956795579547952F5F3F4F77FDE7CF36
:1005B0000CC0440F551F661F771F17FD4160EE0CDE
:1005C000FF1C001F111F21503040403090E05907A0
:1005D00090E0690790E4790760F32B8F3C8FDB0193
:1005E000CA018F779070A070B07080349105A1051A
:1005F000B10561F447FD0AC0E114F10401051105DC
:1006000029F0405C5F4F6F4F7F4F40781A8EFE1786
:1006100011F081E08A8F4D8F5E8F6F8F78A383E01A
:10062000898FCE0149960E94A904A096E2E10C941C
:100630007417A8E1B0E0EFE1F3E00C946017698370
:100640007A838B839C832D833E834F835887B9E0C5
:10065000EB2EF12CEC0EFD1ECE010196B7010E948F
:100660007E058E010F5E1F4FCE010596B8010E94D8
:100670007E052985223008F47EC03989323010F495
:10068000B8017CC08A859A8989278A87243011F02D
:10069000223031F4231709F06EC066ED70E06EC0B1
:1006A000343039F41D861E861F86188A1C861B86E8
:1006B00004C0323021F484E08987B7015FC02B8504
:1006C0003C858B899C89281B390B3C872B87ED84C3
:1006D000FE840F851889AD88BE88CF88D88CEA142F
:1006E000FB040C051D0540F4EE0CFF1C001F111F40
:1006F000215030403C872B8720E030E040E050E044
:1007000080E090E0A0E0B0E460E070E0EA14FB0478
:100710000C051D0540F0282B392B4A2B5B2BEA18C2
:10072000FB080C091D09B695A79597958795EE0CC2
:10073000FF1C001F111F6F5F7F4F6F31710531F775
:10074000DA01C9018F779070A070B0708034910584
:10075000A105B10561F427FD0AC0E114F10401050A
:10076000110529F0205C3F4F4F4F5F4F20782D87B8
:100770003E874F87588BBE01675F7F4FCB010E943A
:10078000A9046896EAE00C947C17A8E1B0E0EBECD1
:10079000F3E00C94641769837A838B839C832D83A5
:1007A0003E834F83588789E0E82EF12CEC0EFD1E26
:1007B000CE010196B7010E947E058E010F5E1F4F8C
:1007C000CE010596B8010E947E058985823040F0F1
:1007D0008989823028F0C701B8010E94F60501C05E
:1007E0008FEF6896E6E00C948017A8E1B0E0EBEF9D
:1007F000F3E00C94641769837A838B839C832D8345
:100800003E834F83588789E0E82EF12CEC0EFD1EC5
:10081000CE010196B7010E947E058E010F5E1F4F2B
:10082000CE010596B8010E947E058985823040F090
:100830008989823028F0C701B8010E94F60501C0FD
:100840008FEF6896E6E00C948017A8E1B0E0EBE249
:10085000F4E00C94641769837A838B839C832D83E3
:100860003E834F83588789E0E82EF12CEC0EFD1E65
:10087000CE010196B7010E947E058E010F5E1F4FCB
:10088000CE010596B8010E947E058985823040F030
:100890008989823028F0C701B8010E94F60501C09D
:1008A00081E06896E6E00C948017ACE0B0E0EBE500
:1008B000F4E00C94681769837A838B839C83CE0160
:1008C0000196BE016B5F7F4F0E947E058D81823055
:1008D00061F1823050F1843021F48E81882351F10E
:1008E0002EC02F81388537FD20C06E812F31310514
:1008F0001CF06623F9F023C08EE190E0821B930B7D
:1009000029853A854B855C8504C056954795379572
:1009100027958A95D2F76623B1F05095409530958A
:1009200021953F4F4F4F5F4F0EC020E030E040E039
:1009300050E009C02FEF3FEF4FEF5FE704C020E02A
:1009400030E040E050E8B901CA012C96E2E00C9496
:100950008417DF92EF92FF920F931F93FC01E480C4
:10096000F58006811781D1808081823048F480E053
:1009700090E0A0E1B0E0E82AF92A0A2B1B2BA5C0E1
:10098000843009F49FC0823021F4EE24FF248701D3
:1009900005C0E114F1040105110519F4E0E0F0E0EF
:1009A00096C0628173819FEF623879070CF05BC05B
:1009B00022E83FEF261B370B2A3131052CF020E0CF
:1009C00030E040E050E02AC0B801A701022E04C088
:1009D00076956795579547950A94D2F781E090E010
:1009E000A0E0B0E004C0880F991FAA1FBB1F2A9582
:1009F000D2F70197A109B1098E219F21A023B1232C
:100A00000097A105B10521F081E090E0A0E0B0E001
:100A10009A01AB01282B392B4A2B5B2BDA01C90138
:100A20008F779070A070B07080349105A105B105EA
:100A300039F427FF09C0205C3F4F4F4F5F4F04C080
:100A4000215C3F4F4F4F5F4FE0E0F0E02030A0E0EF
:100A50003A07A0E04A07A0E45A0710F0E1E0F0E00E
:100A600079018A0127C06038710564F5FB01E158FE
:100A7000FF4FD801C7018F779070A070B07080349D
:100A80009105A105B10539F4E7FE0DC080E490E0C1
:100A9000A0E0B0E004C08FE390E0A0E0B0E0E80E9A
:100AA000F91E0A1F1B1F17FF05C016950795F7941F
:100AB000E794319687E016950795F794E7948A9521
:100AC000D1F705C0EE24FF248701EFEFF0E06E2F91
:100AD000679566276795902F9F77D794DD24D794E5
:100AE0008E2F8695492F462B582F5D29B701CA01B5
:100AF0001F910F91FF90EF90DF900895FC01DB01B3
:100B0000408151812281622F6F7770E0221F22275E
:100B1000221F9381892F880F822B282F30E0991F65
:100B20009927991F11969C93119721153105A9F5C5
:100B3000411551056105710511F482E037C082E865
:100B40009FEF13969C938E9312979A01AB0167E0E7
:100B5000220F331F441F551F6A95D1F783E08C93F2
:100B60000DC0220F331F441F551F12968D919C916B
:100B70001397019713969C938E931297203080E0E1
:100B8000380780E0480780E4580758F314962D93FF
:100B90003D934D935C93179708952F3F310579F45A
:100BA000411551056105710519F484E08C93089590
:100BB00064FF03C081E08C9312C01C9210C02F57B9
:100BC000304013963C932E93129783E08C9387E0EA
:100BD000440F551F661F771F8A95D1F770641496CE
:100BE0004D935D936D937C93179708951F93DC014C
:100BF000FB019C91923008F447C08081823008F458
:100C000043C0943051F411961C91843099F5818140
:100C1000682F70E0611B71093FC0843021F0923071
:100C200031F48230B9F18181882389F12DC0119688
:100C30001C9111978230F1F081811817D9F4129626
:100C40002D913C911397828193818217930794F0A1
:100C500028173907BCF014968D919D910D90BC9189
:100C6000A02D2481358146815781281739074A07ED
:100C70005B0718F4112341F00AC082179307A407F9
:100C8000B50740F4112319F061E070E005C06FEF83
:100C90007FEF02C060E070E0CB011F910895DF9309
:100CA000CF93CDB7DEB7EAE3F0E08EE78083E7E3EA
:100CB000F0E080EF8083E4E3F0E083E08083E1E331
:100CC000F0E01082EBE3F0E01082E8E3F0E080EF88
:100CD0008083E5E3F0E01082E2E3F0E08CE38083E0
:100CE000CF91DF910895DF93CF9300D000D000D053
:100CF000CDB7DEB78A836B834C8381E089838A8199
:100D0000843008F0DDC08B81883008F0D9C08C8138
:100D1000882321F08C81813009F0D2C08A81282F6C
:100D200030E03E832D838D819E818130910509F4D1
:100D300043C02D813E81223031052CF48D819E816E
:100D4000009771F0BEC02D813E812230310509F43B
:100D50005FC08D819E818330910509F485C0B1C04B
:100D60008C818823A9F4AAE3B0E0EAE3F0E0808173
:100D7000482F8B81282F30E081E090E0022E02C0C6
:100D8000880F991F0A94E2F7809584238C9399C069
:100D9000AAE3B0E0EAE3F0E08081482F8B81282FBE
:100DA00030E081E090E0022E02C0880F991F0A9483
:100DB000E2F7842B8C9385C08C818823A9F4A7E368
:100DC000B0E0E7E3F0E08081482F8B81282F30E00E
:100DD00081E090E0022E02C0880F991F0A94E2F78A
:100DE000809584238C936DC0A7E3B0E0E7E3F0E047
:100DF0008081482F8B81282F30E081E090E0022E07
:100E000002C0880F991F0A94E2F7842B8C9359C073
:100E10008C818823A9F4A4E3B0E0E4E3F0E08081CE
:100E2000482F8B81282F30E081E090E0022E02C015
:100E3000880F991F0A94E2F7809584238C9341C010
:100E4000A4E3B0E0E4E3F0E08081482F8B81282F19
:100E500030E081E090E0022E02C0880F991F0A94D2
:100E6000E2F7842B8C932DC08C818823A9F4A1E315
:100E7000B0E0E1E3F0E08081482F8B81282F30E063
:100E800081E090E0022E02C0880F991F0A94E2F7D9
:100E9000809584238C9315C0A1E3B0E0E1E3F0E0FA
:100EA0008081482F8B81282F30E081E090E0022E56
:100EB00002C0880F991F0A94E2F7842B8C9301C01B
:100EC0001982898126960FB6F894DEBF0FBECDBF7A
:100ED000CF91DF910895DF93CF9300D000D000D061
:100EE000CDB7DEB78A836B834C8381E089838A81A7
:100EF000843008F0DDC08B81883008F0D9C08C8147
:100F0000882321F08C81813009F0D2C08A81282F7A
:100F100030E03E832D838D819E818130910509F4DF
:100F200043C02D813E81223031052CF48D819E817C
:100F3000009771F0BEC02D813E812230310509F449
:100F40005FC08D819E818330910509F485C0B1C059
:100F50008C818823A9F4ABE3B0E0EBE3F0E080817F
:100F6000482F8B81282F30E081E090E0022E02C0D4
:100F7000880F991F0A94E2F7809584238C9399C077
:100F8000ABE3B0E0EBE3F0E08081482F8B81282FCA
:100F900030E081E090E0022E02C0880F991F0A9491
:100FA000E2F7842B8C9385C08C818823A9F4A8E375
:100FB000B0E0E8E3F0E08081482F8B81282F30E01B
:100FC00081E090E0022E02C0880F991F0A94E2F798
:100FD000809584238C936DC0A8E3B0E0E8E3F0E053
:100FE0008081482F8B81282F30E081E090E0022E15
:100FF00002C0880F991F0A94E2F7842B8C9359C082
:101000008C818823A9F4A5E3B0E0E5E3F0E08081DA
:10101000482F8B81282F30E081E090E0022E02C023
:10102000880F991F0A94E2F7809584238C9341C01E
:10103000A5E3B0E0E5E3F0E08081482F8B81282F25
:1010400030E081E090E0022E02C0880F991F0A94E0
:10105000E2F7842B8C932DC08C818823A9F4A2E322
:10106000B0E0E2E3F0E08081482F8B81282F30E070
:1010700081E090E0022E02C0880F991F0A94E2F7E7
:10108000809584238C9315C0A2E3B0E0E2E3F0E006
:101090008081482F8B81282F30E081E090E0022E64
:1010A00002C0880F991F0A94E2F7842B8C9301C029
:1010B0001982898126960FB6F894DEBF0FBECDBF88
:1010C000CF91DF910895DF93CF93CDB7DEB7289707
:1010D0000FB6F894DEBF0FBECDBF8B836C835E83EB
:1010E0004D8381E08A838B81843008F09FC08C819E
:1010F000883008F09BC08D819E81009709F496C0CE
:101100008B81282F30E038872F834F8158854130DD
:101110005105A9F18F8198858230910534F42F8192
:1011200038852115310571F082C04F8158854230D4
:10113000510509F441C08F8198858330910509F4E8
:1011400058C075C0E9E3F0E08081282F30E08C8141
:10115000882F90E0A90102C0559547958A95E2F73E
:10116000CA01817089838981813029F4ED81FE81F2
:1011700081E080835CC0ED81FE81108258C0E6E38F
:10118000F0E08081282F30E08C81882F90E0A90149
:1011900002C0559547958A95E2F7CA018170898307
:1011A0008981813029F4ED81FE8181E080833FC017
:1011B000ED81FE8110823BC0E3E3F0E08081282FC7
:1011C00030E08C81882F90E0A90102C055954795A9
:1011D0008A95E2F7CA01817089838981813029F477
:1011E000ED81FE8181E0808322C0ED81FE8110824D
:1011F0001EC0E0E3F0E08081282F30E08C81882F52
:1012000090E0A90102C0559547958A95E2F7CA0179
:10121000817089838981813029F4ED81FE8181E0AB
:10122000808305C0ED81FE81108201C01A828A810F
:1012300028960FB6F894DEBF0FBECDBFCF91DF91D9
:101240000895DF93CF9300D000D00F92CDB7DEB7D3
:101250008A836B8381E089838A81843008F056C059
:101260008B81882321F08B81813009F04FC08A81E6
:10127000282F30E03D832C838C819D818130910526
:1012800009F12C813D81223031052CF48C819D8126
:10129000009761F03CC02C813D8122303105F1F096
:1012A0008C819D818330910529F131C08B81813002
:1012B00029F4EAE3F0E08FEF808329C0EAE3F0E06D
:1012C000108225C08B81813029F4E7E3F0E08FEFB5
:1012D00080831DC0E7E3F0E0108219C08B8181306C
:1012E00029F4E4E3F0E08FEF808311C0E4E3F0E061
:1012F00010820DC08B81813029F4E1E3F0E08FEFA3
:10130000808305C0E1E3F0E0108201C01982898189
:101310000F900F900F900F900F90CF91DF91089545
:10132000DF93CF9300D000D00F92CDB7DEB78A8382
:101330006B8381E089838A81843098F58A81282FA4
:1013400030E03D832C838C819D8181309105D1F0EB
:101350002C813D81223031052CF48C819D810097B8
:1013600061F020C02C813D812230310581F08C81DB
:101370009D818330910581F015C0EBE3F0E08B8116
:10138000808310C0E8E3F0E08B8180830BC0E5E34D
:10139000F0E08B81808306C0E2E3F0E08B81808304
:1013A00001C0198289810F900F900F900F900F90BC
:1013B000CF91DF910895DF93CF9300D000D000D07C
:1013C000CDB7DEB78A837C836B8381E089838A8192
:1013D000843008F03FC08B819C810097D9F18A81CD
:1013E000282F30E03E832D838D819E8181309105B1
:1013F000E1F02D813E81223031052CF48D819E81DA
:10140000009761F028C02D813E8122303105A1F086
:101410008D819E8183309105B1F01DC0E9E3F0E03C
:101420008081EB81FC81808316C0E6E3F0E080815F
:10143000EB81FC8180830FC0E3E3F0E08081EB81EE
:10144000FC81808308C0E0E3F0E08081EB81FC81D7
:10145000808301C01982898126960FB6F894DEBF79
:101460000FBECDBFCF91DF910895DF93CF93CDB75E
:10147000DEB727970FB6F894DEBF0FBECDBF9F83B0
:101480008E8381E08C831B828E819F81009709F47B
:101490006EC0EE81FF818FEF80831A8263C08A81E4
:1014A000882F90E0FC01EE50FF4F908181E0692F82
:1014B00040E00E946B0719823FC08981882F90E02D
:1014C000FC01E251FF4F90819E012B5F3F4F83E073
:1014D000692FA9010E9463088D81882351F58A81B3
:1014E000482F50E08981282F30E0CA01880F991FCA
:1014F000880F991F820F931FFC01E252FF4F8081DA
:10150000EE81FF8180830FC08981882F90E0FC01EC
:10151000E251FF4F90819E012B5F3F4F83E0692F87
:10152000A9010E9463088D81882371F381E08B8378
:1015300007C089818F5F89838981843008F4BDCF9A
:101540008A81882F90E0FC01EE50FF4F908181E06E
:10155000692F41E00E946B078B81813049F08A81BD
:101560008F5F8A838A81843008F499CF01C01C82FE
:101570008C8127960FB6F894DEBF0FBECDBFCF91FA
:10158000DF9108950F931F93DF93CF93CDB7DEB70D
:10159000C856D0400FB6F894DEBF0FBECDBFFE01D7
:1015A000EB59FF4F80E090E0ACE0B2E480839183A0
:1015B000A283B3838E010F591F4FFE01EB59FF4FDA
:1015C000608171818281938120E030E04AEF54E4B0
:1015D0000E941F02DC01CB01F80180839183A2836A
:1015E000B383FE01EF59FF4F608171818281938146
:1015F00020E030E040E85FE30E942504882344F4C3
:10160000FE01E15AFF4F81E090E09183808364C046
:10161000FE01EF59FF4F608171818281938120E04B
:101620003FEF4FE757E40E94C50318160CF043C084
:10163000FE01EB59FF4F608171818281938120E02F
:1016400030E040E251E40E941F02DC01CB018E0138
:10165000015A1F4FBC01CD010E944900DC01CB01A2
:10166000F801918380831FC0FE01E35AFF4F88EC8D
:1016700090E091838083FE01E35AFF4F8081918146
:101680000197F1F7FE01E35AFF4F91838083DE015A
:10169000A15ABF4FFE01E15AFF4F8081918101970E
:1016A00011969C938E93FE01E15AFF4F80819181A8
:1016B0000097D1F627C08E01015A1F4FFE01EF5946
:1016C000FF4F60817181828193810E944900DC011A
:1016D000CB01F80191838083DE01A55ABF4FFE0143
:1016E000E15AFF4F808191818D939C93FE01E55AD1
:1016F000FF4F808191810197F1F7FE01E55AFF4F7D
:101700009183808380E061E040E00E946B0783E08A
:1017100061E040E00E946B0782E00E94381380E0A5
:1017200062E041E00E946B07FE01E95AFF4F80E052
:1017300090E0A0E8BFE380839183A283B3838E010E
:101740000D5A1F4FFE01E95AFF4F6081718182815E
:10175000938120E030E04AEF54E40E941F02DC0154
:10176000CB01F80180839183A283B383FE01ED5AFC
:10177000FF4F608171818281938120E030E040E8F9
:101780005FE30E942504882344F4FE01EF5AFF4FD3
:1017900081E090E09183808364C0FE01ED5AFF4FA9
:1017A000608171818281938120E03FEF4FE757E4B0
:1017B0000E94C50318160CF043C0FE01E95AFF4F02
:1017C000608171818281938120E030E040E251E4C8
:1017D0000E941F02DC01CB018E010F5A1F4FBC017A
:1017E000CD010E944900DC01CB01F8019183808387
:1017F0001FC0FE01E15BFF4F88EC90E09183808386
:10180000FE01E15BFF4F808191810197F1F7FE01BD
:10181000E15BFF4F91838083DE01AF5ABF4FFE0132
:10182000EF5AFF4F80819181019711969C938E937F
:10183000FE01EF5AFF4F808191810097D1F627C0BA
:101840008E010F5A1F4FFE01ED5AFF4F60817181CB
:10185000828193810E944900DC01CB01F8019183D0
:101860008083DE01A35BBF4FFE01EF5AFF4F8081F3
:1018700091818D939C93FE01E35BFF4F8081918169
:101880000197F1F7FE01E35BFF4F9183808380E0D6
:1018900062E040E00E946B07FE01E75BFF4F80E0E3
:1018A00090E0A0E8BFE380839183A283B3838E019D
:1018B0000B5B1F4FFE01E75BFF4F608171818281EF
:1018C000938120E030E04AEF54E40E941F02DC01E3
:1018D000CB01F80180839183A283B383FE01EB5B8C
:1018E000FF4F608171818281938120E030E040E888
:1018F0005FE30E942504882344F4FE01ED5BFF4F63
:1019000081E090E09183808364C0FE01EB5BFF4F38
:10191000608171818281938120E03FEF4FE757E43E
:101920000E94C50318160CF043C0FE01E75BFF4F91
:10193000608171818281938120E030E040E251E456
:101940000E941F02DC01CB018E010D5B1F4FBC0109
:10195000CD010E944900DC01CB01F8019183808315
:101960001FC0FE01EF5BFF4F88EC90E09183808306
:10197000FE01EF5BFF4F808191810197F1F7FE013E
:10198000EF5BFF4F91838083DE01AD5BBF4FFE01B4
:10199000ED5BFF4F80819181019711969C938E930F
:1019A000FE01ED5BFF4F808191810097D1F624C04D
:1019B0008E010D5B1F4FFE01EB5BFF4F608171815C
:1019C000828193810E944900DC01CB01F80191835F
:1019D0008083FE01ED5BFF4F80819181FE01FF96C8
:1019E00091838083FE01FF96808191810197F1F7B9
:1019F000FE01FF969183808388E20E94020F80E0BF
:101A000090E0A4E3B2E48BAF9CAFADAFBEAF6BADE3
:101A10007CAD8DAD9EAD2BEA3AEA4AE250E40E94DD
:101A20001F02DC01CB018FAB98AFA9AFBAAF6FA992
:101A300078AD89AD9AAD20E030E040E85FE30E94E8
:101A4000250488231CF481E08EAB91C06FA978AD8A
:101A500089AD9AAD20E030E04FE753E40E94C50322
:101A600018160CF07BC06BAD7CAD8DAD9EAD20E04B
:101A700030E04AE754E40E941903DC01CB018AAB51
:101A80009BABACABBDAB6AA97BA98CA99DA920E09F
:101A900030E04AEF54E40E941F02DC01CB018EA724
:101AA0009FA7A8ABB9AB6EA57FA588A999A920E08F
:101AB00030E040E85FE30E94250488232CF481E0B5
:101AC00090E09DA78CA73FC06EA57FA588A999A986
:101AD00020E03FEF4FE757E40E94C50318164CF58E
:101AE0006AA97BA98CA99DA920E030E040E251E4DD
:101AF0000E941F02DC01CB01BC01CD010E94490004
:101B0000DC01CB019DA78CA70FC088EC90E09BA7C0
:101B10008AA78AA59BA50197F1F79BA78AA78CA501
:101B20009DA501979DA78CA78CA59DA5009769F7FA
:101B300024C06EA57FA588A999A90E944900DC014F
:101B4000CB019DA78CA78CA59DA599A788A788A543
:101B500099A50197F1F799A788A70FC06FA978AD4C
:101B600089AD9AAD0E944900DC01CB018EAB8EA9F4
:101B70008FA38FA18A95F1F78FA38FE00E94020FA8
:101B800080E090E0A4E3B2E48BA39CA3ADA3BEA34A
:101B90006BA17CA18DA19EA12BEA3AEA4AE250E416
:101BA0000E941F02DC01CB018F8F98A3A9A3BAA3C7
:101BB0006F8D78A189A19AA120E030E040E85FE331
:101BC0000E94250488231CF481E08E8F91C06F8DC4
:101BD00078A189A19AA120E030E04FE753E40E9468
:101BE000C50318160CF07BC06BA17CA18DA19EA132
:101BF00020E030E04AE754E40E941903DC01CB0105
:101C00008A8F9B8FAC8FBD8F6A8D7B8D8C8D9D8DC8
:101C100020E030E04AEF54E40E941F02DC01CB01D7
:101C20008E8B9F8BA88FB98F6E897F89888D998DB8
:101C300020E030E040E85FE30E94250488232CF494
:101C400081E090E09D8B8C8B3FC06E897F89888D71
:101C5000998D20E03FEF4FE757E40E94C503181627
:101C60004CF56A8D7B8D8C8D9D8D20E030E040E2BF
:101C700051E40E941F02DC01CB01BC01CD010E9496
:101C80004900DC01CB019D8B8C8B0FC088EC90E070
:101C90009B8B8A8B8A899B890197F1F79B8B8A8B17
:101CA0008C899D8901979D8B8C8B8C899D89009750
:101CB00069F724C06E897F89888D998D0E944900BB
:101CC000DC01CB019D8B8C8B8C899D89998B888BBA
:101CD000888999890197F1F7998B888B0FC06F8D4F
:101CE00078A189A19AA10E944900DC01CB018E8FC5
:101CF0008E8D8F878F858A95F1F78F8781E00E947F
:101D0000020F80E090E0A0E0B0E48B879C87AD8775
:101D1000BE876B857C858D859E8520E030E04AEF0F
:101D200054E40E941F02DC01CB018F839887A987AE
:101D3000BA876F81788589859A8520E030E040E810
:101D40005FE30E94250488232CF481E090E09E83C9
:101D50008D833FC06F81788589859A8520E03FEF2C
:101D60004FE757E40E94C50318164CF56B857C8538
:101D70008D859E8520E030E040E251E40E941F0204
:101D8000DC01CB01BC01CD010E944900DC01CB018B
:101D90009E838D830FC088EC90E09C838B838B8126
:101DA0009C810197F1F79C838B838D819E810197A4
:101DB0009E838D838D819E81009769F714C06F810A
:101DC000788589859A850E944900DC01CB019E8334
:101DD0008D838D819E819A83898389819A810197E0
:101DE000F1F79A83898386E00E94020FC859DF4F7A
:101DF0000FB6F894DEBF0FBECDBFCF91DF911F911C
:101E00000F910895DF93CF93CDB7DEB7E9970FB663
:101E1000F894DEBF0FBECDBF89AF80E061E040E047
:101E20000E946B0783E061E040E00E946B0789AD90
:101E300082958F700E94381380E062E041E00E943A
:101E40006B0780E090E0A0E8BFE38DAB9EABAFAB4B
:101E5000B8AF6DA97EA98FA998AD20E030E04AEF18
:101E600054E40E941F02DC01CB0189AB9AABABABFF
:101E7000BCAB69A97AA98BA99CA920E030E040E815
:101E80005FE30E94250488232CF481E090E098AB66
:101E90008FA73FC069A97AA98BA99CA920E03FEF31
:101EA0004FE757E40E94C50318164CF56DA97EA9AB
:101EB0008FA998AD20E030E040E251E40E941F027B
:101EC000DC01CB01BC01CD010E944900DC01CB014A
:101ED00098AB8FA70FC088EC90E09EA78DA78DA52B
:101EE0009EA50197F1F79EA78DA78FA598A90197A9
:101EF00098AB8FA78FA598A9009769F714C069A917
:101F00007AA98BA99CA90E944900DC01CB0198AB5E
:101F10008FA78FA598A99CA78BA78BA59CA5019798
:101F2000F1F79CA78BA780E062E040E00E946B077E
:101F300080E090E0A0E8BFE38FA398A7A9A7BAA785
:101F40006FA178A589A59AA520E030E04AEF54E476
:101F50000E941F02DC01CB018BA39CA3ADA3BEA3F7
:101F60006BA17CA18DA19EA120E030E040E85FE361
:101F70000E94250488232CF481E090E09AA389A391
:101F80003FC06BA17CA18DA19EA120E03FEF4FE758
:101F900057E40E94C50318164CF56FA178A589A5D2
:101FA0009AA520E030E040E251E40E941F02DC01EB
:101FB000CB01BC01CD010E944900DC01CB019AA3F9
:101FC00089A30FC088EC90E098A38F8F8F8D98A184
:101FD0000197F1F798A38F8F89A19AA101979AA3EE
:101FE00089A389A19AA1009769F714C06BA17CA16C
:101FF0008DA19EA10E944900DC01CB019AA389A377
:1020000089A19AA19E8F8D8F8D8D9E8D0197F1F75D
:102010009E8F8D8F89AD0E94381380E062E041E091
:102020000E946B0780E090E0A0E8BFE3898F9A8F61
:10203000AB8FBC8F698D7A8D8B8D9C8D20E030E0CD
:102040004AEF54E40E941F02DC01CB018D8B9E8B72
:10205000AF8BB88F6D897E898F89988D20E030E0B5
:1020600040E85FE30E94250488232CF481E090E09F
:102070009C8B8B8B3FC06D897E898F89988D20E0EA
:102080003FEF4FE757E40E94C50318164CF5698DE2
:102090007A8D8B8D9C8D20E030E040E251E40E94EF
:1020A0001F02DC01CB01BC01CD010E944900DC0113
:1020B000CB019C8B8B8B0FC088EC90E09A8B898B2B
:1020C00089899A890197F1F79A8B898B8B899C89E9
:1020D00001979C8B8B8B8B899C89009769F714C027
:1020E0006D897E898F89988D0E944900DC01CB0122
:1020F0009C8B8B8B8B899C89988B8F878F859889FC
:102100000197F1F7988B8F8780E062E040E00E94B2
:102110006B0780E090E0A0E8BFE38B879C87AD87EA
:10212000BE876B857C858D859E8520E030E04AEFFB
:1021300054E40E941F02DC01CB018F839887A9879A
:10214000BA876F81788589859A8520E030E040E8FC
:102150005FE30E94250488232CF481E090E09E83B5
:102160008D833FC06F81788589859A8520E03FEF18
:102170004FE757E40E94C50318164CF56B857C8524
:102180008D859E8520E030E040E251E40E941F02F0
:10219000DC01CB01BC01CD010E944900DC01CB0177
:1021A0009E838D830FC088EC90E09C838B838B8112
:1021B0009C810197F1F79C838B838D819E81019790
:1021C0009E838D838D819E81009769F714C06F81F6
:1021D000788589859A850E944900DC01CB019E8320
:1021E0008D838D819E819A83898389819A810197CC
:1021F000F1F79A838983E9960FB6F894DEBF0FBE94
:10220000CDBFCF91DF910895DF93CF93CDB7DEB7E8
:10221000E9970FB6F894DEBF0FBECDBF89AF80E05F
:1022200061E041E00E946B0783E061E040E00E94D2
:102230006B0789AD82958F700E94381380E062E051
:1022400041E00E946B0780E090E0A0E8BFE38DAB27
:102250009EABAFABB8AF6DA97EA98FA998AD20E0BA
:1022600030E04AEF54E40E941F02DC01CB0189AB4D
:102270009AABABABBCAB69A97AA98BA99CA920E0AE
:1022800030E040E85FE30E94250488232CF481E0DD
:1022900090E098AB8FA73FC069A97AA98BA99CA9A8
:1022A00020E03FEF4FE757E40E94C50318164CF5B6
:1022B0006DA97EA98FA998AD20E030E040E251E4FD
:1022C0000E941F02DC01CB01BC01CD010E9449002C
:1022D000DC01CB0198AB8FA70FC088EC90E09EA7E4
:1022E0008DA78DA59EA50197F1F79EA78DA78FA518
:1022F00098A9019798AB8FA78FA598A9009769F720
:1023000014C069A97AA98BA99CA90E944900DC0183
:10231000CB0198AB8FA78FA598A99CA78BA78BA55E
:102320009CA50197F1F79CA78BA780E062E040E0B5
:102330000E946B0780E090E0A0E8BFE38FA398A71E
:10234000A9A7BAA76FA178A589A59AA520E030E032
:102350004AEF54E40E941F02DC01CB018BA39CA333
:10236000ADA3BEA36BA17CA18DA19EA120E030E016
:1023700040E85FE30E94250488232CF481E090E08C
:102380009AA389A33FC06BA17CA18DA19EA120E04F
:102390003FEF4FE757E40E94C50318164CF56FA1B5
:1023A00078A589A59AA520E030E040E251E40E949A
:1023B0001F02DC01CB01BC01CD010E944900DC0100
:1023C000CB019AA389A30FC088EC90E098A38F8FCC
:1023D0008F8D98A10197F1F798A38F8F89A19AA16A
:1023E00001979AA389A389A19AA1009769F714C0BC
:1023F0006BA17CA18DA19EA10E944900DC01CB01B3
:102400009AA389A389A19AA19E8F8D8F8D8D9E8D70
:102410000197F1F79E8F8D8F89AD0E94381380E070
:1024200062E041E00E946B0780E090E0A0E8BFE33B
:10243000898F9A8FAB8FBC8F698D7A8D8B8D9C8D98
:1024400020E030E04AEF54E40E941F02DC01CB019F
:102450008D8B9E8BAF8BB88F6D897E898F89988D80
:1024600020E030E040E85FE30E94250488232CF45C
:1024700081E090E09C8B8B8B3FC06D897E898F893A
:10248000988D20E03FEF4FE757E40E94C5031816F0
:102490004CF5698D7A8D8B8D9C8D20E030E040E28B
:1024A00051E40E941F02DC01CB01BC01CD010E945E
:1024B0004900DC01CB019C8B8B8B0FC088EC90E03A
:1024C0009A8B898B89899A890197F1F79A8B898BE5
:1024D0008B899C8901979C8B8B8B8B899C8900971E
:1024E00069F714C06D897E898F89988D0E94490093
:1024F000DC01CB019C8B8B8B8B899C89988B8F8784
:102500008F8598890197F1F7988B8F8780E062E03B
:1025100040E00E946B0780E090E0A0E8BFE38B877B
:102520009C87AD87BE876B857C858D859E8520E0E9
:1025300030E04AEF54E40E941F02DC01CB018F839C
:102540009887A987BA876F81788589859A8520E0E1
:1025500030E040E85FE30E94250488232CF481E00A
:1025600090E09E838D833FC06F81788589859A85B1
:1025700020E03FEF4FE757E40E94C50318164CF5E3
:102580006B857C858D859E8520E030E040E251E4BE
:102590000E941F02DC01CB01BC01CD010E94490059
:1025A000DC01CB019E838D830FC088EC90E09C837F
:1025B0008B838B819C810197F1F79C838B838D8129
:1025C0009E8101979E838D838D819E81009769F7FF
:1025D00014C06F81788589859A850E944900DC0145
:1025E000CB019E838D838D819E819A83898389818E
:1025F0009A810197F1F79A838983E9960FB6F89447
:10260000DEBF0FBECDBFCF91DF910895DF93CF9393
:1026100000D000D0CDB7DEB789836A838981282FA7
:1026200030E03C832B838B819C818130910531F09C
:102630002B813C812230310531F009C08A818058DC
:102640000E94020F04C08A8180540E94020F0F90E2
:102650000F900F900F90CF91DF910895DF93CF935C
:10266000CDB7DEB781E00E94020FCF91DF910895D0
:10267000DF93CF9300D0CDB7DEB78A838A81817094
:1026800089838981882331F480E063E040E00E94FF
:102690006B0705C080E063E041E00E946B078A8120
:1026A0008695817089838981882331F480E064E094
:1026B00040E00E946B0705C080E064E041E00E94BA
:1026C0006B078A81869586958170898389818823A5
:1026D00031F480E065E040E00E946B0705C080E0D7
:1026E00065E041E00E946B078A8186958695869514
:1026F000817089838981882331F480E066E040E03D
:102700000E946B0705C080E066E041E00E946B0715
:102710000F900F90CF91DF910895DF93CF9300D06A
:102720000F92CDB7DEB79B838A8319820EC0898151
:10273000282F30E08A819B81FC01E20FF31F80810A
:102740000E94041189818F5F89838981282F30E05D
:102750008A819B81FC01E20FF31F8081882339F776
:102760000F900F900F90CF91DF9108950F931F93CB
:10277000DF93CF93CDB7DEB7C858D0400FB6F894EB
:10278000DEBF0FBECDBFFE01E957FF4F91838083AF
:102790001E821D821C821B821A82198235C08D8185
:1027A0009E8101969E838D830B811C81FE01E957DA
:1027B000FF4F808191812AE030E0B9010E944417E7
:1027C000AC01405D5F4F9801220F331FCE0101968F
:1027D000820F931FFC013696518340838E01095767
:1027E0001F4FFE01E957FF4F808191812AE030E0C1
:1027F000B9010E944417CB01F801918380838B813A
:102800009C8101969C838B83FE01E957FF4F808159
:102810009181009721F625C069817A818D819E8101
:1028200001979C01220F331FCE010196820F931F47
:10283000FC013696408151819E01295B3F4FCB01BF
:10284000880F991FF901E80FF91F5183408389818F
:102850009A8101969A8389838D819E8101979E83B7
:102860008D838D819E810097B9F6CE01895B9F4F44
:102870000E948D13C857DF4F0FB6F894DEBF0FBE0E
:10288000CDBFCF91DF911F910F910895DF93CF932B
:1028900000D000D000D0CDB7DEB79E838D838D8170
:1028A0009E818A30910530F48D819E81C0960E9470
:1028B0008D135DC01C821B820FC08B819C81019691
:1028C0009C838B838D819E812AE030E0B9010E9438
:1028D0004417CB019E838D838D819E812AE030E059
:1028E000B9010E944417009741F31A82198222C04D
:1028F00089819A819C01220F331FC901880F991F7A
:10290000880F991FF901E80FF91F8D819E812AE038
:1029100030E0B9010E9444178E0F9F1F9A8389836C
:102920008D819E812AE030E0B9010E944417CB01DD
:102930009E838D838D819E810097D1F614C08981FD
:102940009A812AE030E0B9010E944417C0960E94A3
:102950008D1389819A812AE030E0B9010E944417E1
:10296000CB019A83898389819A81009741F72696C2
:102970000FB6F894DEBF0FBECDBFCF91DF910895A3
:10298000DF93CF9300D00F92CDB7DEB78FEF8B835D
:102990001A8219828B818F3FE9F7CE0103960E943C
:1029A000350A1FC08B818D33C9F08981882F90E053
:1029B0009C01220F331FC901880F991F880F991F8F
:1029C000820F931F982F8B81890F89838B810E949F
:1029D0000411CE0103960E94350A03C081E08A8368
:1029E00003C08B818F3FF1F68A81882399F21A8286
:1029F00089810F900F900F90CF91DF910895DF9311
:102A0000CF93CDB7DEB728970FB6F894DEBF0FBED1
:102A1000CDBF8FEF8C831B821A828C818F3FE9F7A9
:102A2000CE0104960E94350A1BC08C818D33A9F01B
:102A30008A81282F30E04C81CE010596FC01E20FFF
:102A4000F31F40838AE20E940411CE0104960E9483
:102A5000350A8A818F5F8A8303C081E08B8303C03C
:102A60008C818F3F11F78B818823B9F219821EC0A8
:102A70008981282F30E0CE010596FC01E20FF31F7B
:102A800020818981882F90E0FC01E950FF4F8081EF
:102A9000281719F01092F6000CC089818F5F898386
:102AA00081E08093F60089818F5F898389818430FA
:102AB000F8F28091F60028960FB6F894DEBF0FBEAC
:102AC000CDBFCF91DF910895DF93CF93CDB7DEB720
:102AD000A1970FB6F894DEBF0FBECDBF1F8E8FEF4C
:102AE00088A38FEF89A38FEF8E8F0E944F060E94DD
:102AF000C20A80E690E00E948D1380E090E8ABE38C
:102B0000B5E4898F9A8FAB8FBC8F698D7A8D8B8D51
:102B10009C8D20E030E04AEF54E40E941F02DC016B
:102B2000CB018D8B9E8BAF8BB88F6D897E898F8902
:102B3000988D20E030E040E85FE30E942504882380
:102B40002CF481E090E09C8B8B8B3FC06D897E895B
:102B50008F89988D20E03FEF4FE757E40E94C5032F
:102B600018164CF5698D7A8D8B8D9C8D20E030E0A8
:102B700040E251E40E941F02DC01CB01BC01CD0107
:102B80000E944900DC01CB019C8B8B8B0FC088EC31
:102B900090E09A8B898B89899A890197F1F79A8BB2
:102BA000898B8B899C8901979C8B8B8B8B899C89CA
:102BB000009769F714C06D897E898F89988D0E946E
:102BC0004900DC01CB019C8B8B8B8B899C89988B7A
:102BD0008F878F8598890197F1F7988B8F870E944F
:102BE0002E1386E690E00E948D1382E060E00E9442
:102BF00006130E94FF148F8F8F8D8823D9F00E94B7
:102C00002E1381E060E00E94061385E790E00E94A9
:102C10008D1381E06AE00E94061380E890E00E9434
:102C20008D1382E060E00E9406138AE890E00E9423
:102C30008D131F8E88A18F3FE9F7CE0180960E94E9
:102C4000350A1DC188A1813309F073C00E942E137B
:102C500081E060E00E94061388E990E00E948D13F5
:102C600082E060E00E9406138DE990E00E948D13DF
:102C70008FEF88A388A18F3F09F0FDC0CE01809619
:102C80000E94350A51C088A1813321F088A1823386
:102C900009F046C00E942E1381E060E00E940613F6
:102CA00083EA90E00E948D1382E060E00E940613A8
:102CB00080EB90E00E948D138FEF88A388A18F3F57
:102CC000E9F7CE0180960E94350A26C088A181339B
:102CD00019F088A18233E1F40E942E1381E060E0B4
:102CE0000E94061385E790E00E948D1381E06AE060
:102CF0000E9406138AEB90E00E948D1382E060E050
:102D00000E9406138AE890E00E948D138FEF88A33B
:102D1000CE0180960E94350A88A18F3FB9F6CECFAA
:102D2000CE0181960E94350A88A18F3F09F0ABCF72
:102D3000A2C088A1833309F09EC00E942E1381E0B7
:102D400060E00E9406138AEC90E00E948D1382E0FE
:102D500060E00E9406130E94C0148D8F80E090E016
:102D6000AAE7B4E48B879C87AD87BE876B857C859B
:102D70008D859E8520E030E04AEF54E40E941F02DA
:102D8000DC01CB018F839887A987BA876F8178850B
:102D900089859A8520E030E040E85FE30E942504C1
:102DA00088232CF481E090E09E838D833FC06F8167
:102DB000788589859A8520E03FEF4FE757E40E94A8
:102DC000C50318164CF56B857C858D859E8520E0A6
:102DD00030E040E251E40E941F02DC01CB01BC0163
:102DE000CD010E944900DC01CB019E838D830FC081
:102DF00088EC90E09C838B838B819C810197F1F719
:102E00009C838B838D819E8101979E838D838D8191
:102E10009E81009769F714C06F81788589859A85AE
:102E20000E944900DC01CB019E838D838D819E81B0
:102E30009A83898389819A810197F1F79A8389839B
:102E40000E942E1381E060E00E94061385E790E067
:102E50000E948D1381E06AE00E9406138AEB90E0E5
:102E60000E948D1382E060E00E9406138AE890E0E1
:102E70000E948D1318A2CE0180960E94350A88A167
:102E80008F3F09F0DFCED6CEAA1BBB1B51E107C096
:102E9000AA1FBB1FA617B70710F0A61BB70B881FEA
:102EA000991F5A95A9F780959095BC01CD01089579
:102EB0002F923F924F925F926F927F928F929F924A
:102EC000AF92BF92CF92DF92EF92FF920F931F9338
:102ED000CF93DF93CDB7DEB7CA1BDB0B0FB6F894E9
:102EE000DEBF0FBECDBF09942A88398848885F8429
:102EF0006E847D848C849B84AA84B984C884DF809A
:102F0000EE80FD800C811B81AA81B981CE0FD11D7D
:102F10000FB6F894DEBF0FBECDBFED010895F89453
:022F2000FFCFE1
:102F220068656C6C6F00656E746572207061737396
:102F3200776F726400312D4443206D6F746F72009D
:102F4200322D7374657070657200332D73657276FD
:102F52006F206D6F746F7200312D435700322D4315
:102F6200435700312D66756C6C2073706565640083
:102F7200322D6D617020706F7400322D7374657024
:102F8200706572206D6F746F7200656E7465722069
:102F9200616E676C650000000000000000003132C5
:102FA200332B3435362D3738392A30252F3D02035D
:0C2FB20004050405060701313233340029
:00000001FF
